:020000040800F2
:10000000180800209D010008F7020008EF02000810
:10001000F302000809020008370B00080000000086
:10002000000000000000000000000000F1040008D3
:100030000D02000800000000850300080906000802
:10004000B7010008B7010008B7010008B7010008B0
:10005000B7010008B7010008B7010008B7010008A0
:10006000B7010008B7010008B7010008B701000890
:10007000B7010008B7010008B7010008B701000880
:10008000B7010008B7010008B7010008B701000870
:10009000B7010008B7010008B7010008B701000860
:1000A000B7010008B7010008B7010008B701000850
:1000B00075060008B7010008B7010008B70100087D
:1000C000B7010008B7010008B7010008B701000830
:1000D000B7010008B7010008F9080008B7010008D7
:1000E000B7010008B7010008B7010008B701000810
:1000F000B7010008B7010008B7010008B701000800
:10010000B7010008B7010008B7010008B7010008EF
:10011000B7010008B7010008B7010008B7010008DF
:10012000B7010008B7010008B7010008B7010008CF
:10013000B7010008B7010008B7010008B7010008BF
:10014000B7010008B7010008B7010008B7010008AF
:10015000B7010008B7010008B7010008B70100089F
:10016000B7010008B7010008B7010008B70100088F
:10017000B7010008B7010008B7010008B70100087F
:10018000B7010008B7010008DFF80CD000F02AF82A
:1001900000480047651600081808002006488047F8
:1001A00006480047FEE7FEE7FEE7FEE7FEE7FEE75C
:1001B000FEE7FEE7FEE7FEE70D06000889010008FE
:1001C00040EA01039B0703D009E008C9121F08C0D9
:1001D000042AFAD203E011F8013B00F8013B521E59
:1001E000F9D27047064C074D06E0E06840F0010385
:1001F00094E8070098471034AC42F6D3FFF7C8FFE5
:10020000341F0008541F000800BFFEE77047F0B518
:100210000A4600210023002400BF3DE0012505FA25
:1002200001F3156805EA03049C4234D105684F00C8
:100230000326BE40B543056015794E00B5400668FB
:10024000354305601579012D02D01579022D16D19F
:1002500085684F000326BE40B543856055794E0042
:10026000B540866835438560456801268E40B543B4
:100270004560456896798E40B6B235434560C5689D
:100280004F000326BE40B543C560D5794E00B5404A
:10029000C6683543C560491C1029BFD3F0BDF0B511
:1002A000002300244D07ED0E02FA05F3CE1000F1F5
:1002B000200555F826504E07F70E0F26BE40B543D1
:1002C000CF1000F1200646F82750CE1000F120058F
:1002D00055F8265045EA0304CE1000F1200545F8F4
:1002E0002640F0BD0AB1018300E04183704700BFA2
:1002F000FEE700BFFEE7704770B5002100230F2224
:10030000C4781CB3174C246804F4E064C4F5E064BA
:10031000C4F30721C1F10404E3B20A4144789C40CC
:10032000E1B28478144021430C07210E0E4C05786D
:100330006155047804F01F050124AC4005786D1167
:10034000AD0005F1E025C5F8004109E0047804F0AE
:100350001F050124AC40054D0678761145F826406E
:1003600070BD00000CED00E000E400E080E100E082
:1003700002490143024A1160704700000000FA057B
:100380000CED00E07047000029B1064A12680243F4
:10039000044B1A6004E0034A12688243014B1A605E
:1003A000704700003038024029B1064A1268024303
:1003B000044B1A6004E0034A12688243014B1A603E
:1003C000704700004038024029B1064A12680243D3
:1003D000044B1A6004E0034A12688243014B1A601E
:1003E000704700002038024029B1064A12680243D3
:1003F000044B1A6004E0034A12688243014B1A60FE
:100400007047000024380240F0B50021002200248B
:10041000022500260223324F3F6807F00C0121B16C
:10042000042905D0082937D105E02E4F076036E0B2
:100430002D4F076033E02A4F3F1F3F68C7F38056B8
:10044000274F3F1F3F6807F03F036EB1264FB7FBB2
:10045000F3F7DFF88CC0ACF1040CDCF800C0CCF38F
:10046000881C07FB0CF40CE01E4FB7FBF3F7DFF81A
:1004700070C0ACF1040CDCF800C0CCF3881C07FBA6
:100480000CF4174F3F1F3F68C7F301477F1C7D00E7
:10049000B4FBF5F7076002E0124F076000BF00BF32
:1004A0000F4F3F6807F0F0010909104F7A5C0768A9
:1004B000D74047600A4F3F6807F4E051890A0B4F65
:1004C0007A5C4768D7408760054F3F6807F4604112
:1004D000490B064F7A5C4768D740C760F0BD000003
:1004E000083802400024F40000127A0004000020C2
:1004F000704700000CB5002001900090344800685F
:1005000040F480303249086000BF3148006800F490
:10051000003000900198401C0190009818B9019893
:10052000B0F5A04FF1D12A48006800F4003010B1B6
:100530000120009001E0002000900098012846D1A1
:1005400023484030006840F0805021494031086025
:100550002048006840F440401E4908601C480830AC
:1005600000681B49083108600846006840F40040F4
:1005700008600846006840F4A05008601648091F4B
:100580000860081F006840F08070091F086000BF05
:100590000F48006800F000700028F9D040F20570A4
:1005A0000E4908600A480830006820F00300084936
:1005B000083108600846006840F00200086000BF8B
:1005C00003480830006800F00C000828F8D10CBD82
:1005D000003802400070004008544007003C0240D0
:1005E000042808D14FF0E021096941F004014FF0DF
:1005F000E022116107E04FF0E021096921F00401D8
:100600004FF0E022116170477047000010B51548A7
:10061000006840F47000134908601348006840F017
:1006200001001149086000200F49083108600E4898
:1006300000680E4908400C4908600D48091D086013
:10064000081F006820F48020091F08600020064968
:100650000C310860FFF74EFF4FF000600149803910
:10066000086010BD88ED00E000380240FFFFF6FE94
:100670001030002410B50121880700F0DFF828B100
:1006800001F038F80121880700F001F810BDCA43D5
:100690000282704721B1028842F00102028004E028
:1006A00002884FF6FE731A400280704710B5044668
:1006B0005548844208D101210846FFF795FE0021E4
:1006C0000120FFF791FE9DE0B4F1804F08D1012198
:1006D0000846FFF779FE00210120FFF775FE91E043
:1006E0004A48844208D101210220FFF76DFE002113
:1006F0000220FFF769FE85E04548844208D10121C8
:100700000420FFF761FE00210420FFF75DFE79E081
:100710004048844208D101210820FFF755FE0021FE
:100720000820FFF751FE6DE03B48844208D10121CB
:100730001020FFF749FE00211020FFF745FE61E081
:100740003648844208D101212020FFF73DFE0021D8
:100750002020FFF739FE55E03148844208D10121BD
:100760000220FFF741FE00210220FFF73DFE49E095
:100770002C48844209D101210804FFF735FE0021ED
:100780004FF48030FFF730FE3CE02748844209D127
:1007900001214804FFF728FE00214FF40030FFF745
:1007A00023FE2FE02148844209D101218804FFF76C
:1007B0001BFE00214FF48020FFF716FE22E01C48AC
:1007C000844208D101214020FFF7FEFD0021402096
:1007D000FFF7FAFD16E01748844208D10121802076
:1007E000FFF7F2FD00218020FFF7EEFD0AE012483E
:1007F000844207D101218015FFF7E6FD0021A015F5
:10080000FFF7E2FD10BD00000000014000040040C1
:1008100000080040000C00400010004000140040A0
:1008200000040140004001400044014000480140F4
:1008300000180040001C00400020004030B5024677
:10084000002000230024158A05EA0103958905EAA2
:10085000010413B10CB1012000E0002030BD1AB139
:1008600083890B43838102E083898B4383817047B3
:100870004162704700220288184B98420ED0184BF4
:1008800098420BD0B0F1804F08D0164B984205D05B
:10089000154B984202D0154B984204D14FF68F73F6
:1008A0001A404B881A43124B984207D0114B98427A
:1008B00004D04FF6FF431A400B891A4302804B685D
:1008C000C3620B880385054B984202D0044B9842C3
:1008D00001D18B7A03860123838270470000014097
:1008E000000401400004004000080040000C0040EB
:1008F000001000400014004010B540F2255114488B
:1009000000F043F8012806D100F0FCFE40F225512A
:100910000F4800F01FF84FF458710D4800F035F8FB
:10092000012806D14FF45871094800F013F800F07F
:10093000E9FE40F22661064800F027F8012806D1BA
:1009400000F0E8FE40F22661014800F003F810BD17
:100950000044004010B50022002340F66A14A14272
:1009600000D100BF0A1201249440A3B2DC430480EA
:1009700010BD21B1828942F40052828104E0828953
:100980004DF6FF731A408281704770B5024600240D
:1009900000230025002040F66A16B14200D100BFB6
:1009A000C1F3421501F01F03012606FA03F3012DDE
:1009B00002D19689334006E0022D02D1168A3340D7
:1009C00001E0968A33400C12012606FA04F41688D8
:1009D000344013B10CB1012000E0002070BDF0B52F
:1009E0000346002400260025002040F66A17B9427D
:1009F00000D100BF1846C1F3421401F01F060127C1
:100A000007FA06F5012C01D10C3004E0022C01D1CB
:100A1000103000E014301AB107682F43076002E07D
:100A20000768AF430760F0BD2DE9FF4705460E4656
:100A30000024A14600BFA046B08900B100BF2C8AA7
:100A400024F44054F08804432C82AC8941F20C60B9
:100A50008443B08831890843718908430443AC81D9
:100A6000AC8A24F44074B0890443AC826846FFF732
:100A7000CBFC2048854202D01F48854202D1DDF8D8
:100A80000C9001E0DDF80890A88900F4004040B126
:100A900009EBC90000EB091031684900B0FBF1F720
:100AA00007E009EBC90000EB091031688900B0FBD1
:100AB000F1F76420B7FBF0F004012009642101FB89
:100AC0001078A88900F4004040B1322000EBC80043
:100AD000B0FBF1F000F00700044308E0322000EB27
:100AE00008106421B0FBF1F000F00F0004432C81EA
:100AF000BDE8FF87001001400014014008B54FF425
:100B0000E060FFF735FC26208DF8000000208DF80E
:100B100001008DF8020001208DF803006846FFF700
:100B2000EBFB08BD01468888C0F308007047C1F39D
:100B300008028280704700BFFEE7704702E008C8E5
:100B4000121F08C1002AFAD170477047002001E047
:100B500001C1121F002AFBD17047000010B50446E6
:100B60006FF00400FFF73CFDE11704EB5171C1F396
:100B7000C701074A11701046007800EB4001C1EB35
:100B8000C0104FF6FF7101EAC0000249088010BD95
:100B9000000000200200002010B500240648007864
:100BA000012806D1054800688047002002490870E6
:100BB00000E00624204610BD260000202C00002066
:100BC0002DE9F05F06460D464FF0000B28880528FA
:100BD00044D170784FEA002AB07840EA0A0AF078E7
:100BE000040230790443012C35DBB4F5FA6F32DAB4
:100BF000374600202880012007F8010B2888401C78
:100C0000288004F0070040B12046E11704EB517141
:100C1000C910491C01F0FF0805E02046E11704EB6C
:100C20005171C1F3C70807F8018B2888401C288040
:100C3000002322465146384600F032FC8146B9F185
:100C4000000F04D0484600F043FD834608E02888A2
:100C50004044288004E04FF0030B01E04FF0030B09
:100C60005846BDE8F09F2DE9F05F06460D464FF06F
:100C7000000B2888052843D170784FEA002AB07805
:100C800040EA0A0AF078040230790443012C34DB8C
:100C9000B4F5FA6F31DA374600202880022007F8D1
:100CA000010B2888401C288004F0070040B1204632
:100CB000E11704EB5171C910491C01F0FF0805E070
:100CC0002046E11704EB5171C1F3C70807F8018B07
:100CD0002888401C288022465146384600F030FCC7
:100CE0008146B9F1000F04D0484600F0F1FC83467C
:100CF00008E028884044288004E04FF0030B01E01E
:100D00004FF0030B5846BDE8F09F2DE9F04705462C
:100D10000C464FF0000A2088052833D168784FEA46
:100D20000029A87840EA0909E87806022E79012E00
:100D300025DB7D2E23DC2F4600202080032007F8B2
:100D4000010B2088401C20807006000E07F8010B64
:100D50002088401C2080002332464946384600F057
:100D60001FFC8046B8F1000F04D0404600F0B0FCF4
:100D7000824609E0208800EB4600208004E04FF026
:100D8000030A01E04FF0030A5046BDE8F0872DE961
:100D9000F04705460C464FF0000A2088052833D15D
:100DA00068784FEA0029A87840EA0909E87806023D
:100DB00028790643012E24DB7D2E22DA2F460020DF
:100DC0002080042007F8010B2088401C208070063A
:100DD000000E07F8010B2088401C2080324649464F
:100DE000384600F01FFC8046B8F1000F04D04046A2
:100DF00000F06EFC824609E0208800EB460020806F
:100E000004E04FF0030A01E04FF0030A5046BDE84A
:100E1000F0872DE9FC5F04460D46002000902888ED
:100E20000A285DDB60784FEA002AA07840EA0A0AC7
:100E30000AF101001FFA80FAE078060220790643E1
:100E400060794FEA002BA07940EA0B0B0BF101000F
:100E50001FFA80FBE0790702207A0743607A01904D
:100E6000012E3BDB7D2E39DC012F37DB792F35DC82
:100E700079000198814231D101233A46594604F163
:100E80000A0000F08DFB8146B9F1000F1ED1A0468B
:100E900000202880172008F8010B2888401C288093
:100EA0007006000E08F8010B2888401C28800023DB
:100EB00032465146404600F073FB8146B9F1000FBF
:100EC00004D12888022101FB06002880B9F1000F17
:100ED00006D0484600F0FCFB009001E003200090A3
:100EE0000098BDE8FC9F000070B505460C4606481A
:100EF00002880649681CFFF763F903480088401C14
:100F00002080002070BD000014000020F8020020A6
:100F10002DE9F84304460E464FF0000830880528B6
:100F200027D160780702A07807432079F0B9E078EC
:100F3000FF2801D0E078C8B900208DF80100E078E2
:100F4000FF2803D101208DF8000002E000208DF879
:100F5000000001231A463946684600F0A1FA05460A
:100F60004DB1284600F0B4FB804604E04FF0030882
:100F700001E04FF003084046BDE8F8832DE9F04159
:100F800004460E464FF000083088052810D16078DE
:100F90000702A078074301231A463946E01C00F0F7
:100FA000FFFA054635B1284600F092FB804601E085
:100FB0004FF003084046BDE8F0812DE9F05F05469B
:100FC0000E464FF0000B3088052838DD68784FEA70
:100FD0000029A87840EA0909E8780402287904433E
:100FE00095F805A004F0070038B12046E11704EB9E
:100FF0005171C910491CCFB205E02046E11704EB3E
:101000005171C1F3C707012C16DBB4F5F66F13DC81
:10101000574511D1012322464946A81D00F040FA48
:101020008046B8F1000F04D0404600F051FB8346E3
:1010300007E00520308004E04FF0030B01E04FF0A3
:10104000030B5846BDE8F09F2DE9F04704460E46D5
:101050004FF0000A3088062826DB60784FEA002827
:10106000A07840EA0808E07805022079054394F862
:101070000590012D15DB782D13DC6806000E484520
:101080000FD101232A464146A01D00F089FA0746E8
:1010900027B1384600F01CFB824607E0052030806F
:1010A00004E04FF0030A01E04FF0030A5046BDE8A8
:1010B000F08700002DE9F04705460C4616461F460E
:1010C000DDF820904FF000081CB1012C01DBF72C5B
:1010D00002DD4FF0020835E01C48047005BB1C48D7
:1010E0001C4908601C481D4908601D481D490860CE
:1010F0001D481E49086000201D4908601D481E4902
:1011000008601E481E4908601E481F4908604B467B
:101110003A4631460D48007800F0D8F8804602E0A3
:101120004FF0020800BF00BFB8F1000F0AD100F075
:1011300011FC10B94FF0030804E0144805700120B9
:10114000134908704046BDE8F087000024000020E5
:10115000751400082C0000209114000830000020B5
:10116000CD130008280000201D13000834000020C3
:1011700038000020D51900083C0000203D1B000865
:1011800040000020B11A0008440000202500002083
:101190002600002038B500254148007808B1062017
:1011A00038BD684600F0C4FB012877D19DF80000E7
:1011B00030B1012805D0022818D003286DD16BE08A
:1011C0006BE0384A38493948394B1B68984705461F
:1011D0005DB93648007837490978884202D03348EB
:1011E000007810B9022000F0BDFB56E02E480068E0
:1011F000007831490870012030490870002417E058
:101200002F4810F8340000B914E02D4810F83400CD
:101210002949097888420AD1294800EBC4002149AC
:1012200042682148006890472449087002E0641C25
:10123000102CE5DB00BF1D48007858B31F4800782C
:10124000C8B10020174908801B48007840F0800191
:10125000144802880088401C124B1880124800680D
:10126000815416480278184601880088401C18806E
:101270000D480068425413480078012800D100BF8F
:1012800008480288084801680A4800780E4B1B6825
:101290009847054601E001E000BF00BF00207FE75E
:1012A00026000020D6000020D0000020D40000201E
:1012B0003400002024000020D5000020D8000020A9
:1012C0005000002025000020280000202DE9F047D4
:1012D00081460E4614461F464FF000083B46082242
:1012E0002146304600F054FB012802D04FF003089D
:1012F0000FE0B4F5964F01D9232503E060000649BD
:10130000B1FBF0F5A8B200F05BFB012801D04FF073
:1013100003084046BDE8F087A07F17002DE9F041A3
:1013200004460D4616464FF0000800271248008874
:10133000FF2800DC04E09C2210A119A0FFF7FDFBB0
:101340000D480088042812DB0B4801881E4800F075
:1013500079FA60B91C480078207007480088C01EE0
:1013600030801948401C28604FF0010800E0052734
:101370003846BDE8F0810000220000202E2E5C4699
:101380007265654D6F646275735C6D6F64627573D1
:101390005C7274755C6D627274752E63000000007F
:1013A0007573526376427566666572506F73203C42
:1013B000204D425F5345525F5044555F53495A4553
:1013C0005F4D415800000000180300202DE9F04156
:1013D00005460E4617464FF00008214800780128C0
:1013E00038D1701E1F49086001201F4908801D4820
:1013F000006805700846008838440880084601885F
:101400001848006800F01EFA044617490888411C75
:10141000154B198015490C54221219460888411C95
:10142000198012490A540120114908700D490968B0
:10143000087800F0BBFA0B480068401C09490860B6
:1014400009480088401E084908800121002000F05A
:1014500015FA01E04FF005084046BDE8F0810000B4
:10146000190000201C00002020000020180300208C
:101470001800002010B50020044908700021012048
:1014800000F0FCF900F03FFA10BD00001900002048
:1014900010B50021084600F0F1F900F01FFA10BD68
:1014A0002DE9F04705460E46904699464FF0000A52
:1014B0000FFA88F430B210283ADB06EB0800B028A7
:1014C00036DCA6F1100007B2B9F1000F03D0B9F174
:1014D000010F29D115E011E0082C01DD082000E002
:1014E0002046C2B2B9B2154800F08AFB05F8010BDC
:1014F000A4F1080004B207F1080007B2002CEBDCED
:1015000015E00EE015F8013B082C01DD082000E095
:101510002046C2B2B9B2094800F088FBA4F1080025
:1015200004B2002CEEDC02E04FF0020A00BF01E042
:101530004FF0010A5046BDE8F0870000E4020020A9
:101540002DE9F04705460C4616464FF0000937B224
:1015500020B210281DDBA019B0281ADCA4F110005D
:101560001FFA80F812E0082F01DD082000E038465D
:10157000C2B24146094800F043FB05F8010BA7F150
:10158000080007B208F108001FFA80F8002FEADC13
:1015900001E04FF001094846BDE8F087D002002085
:1015A000F0B504460D4600202EB2102E35DBAE18E5
:1015B000D82E32DCA5F1100631B213B1012B29D19E
:1015C00012E00EE0164E36F81160361204F8016B88
:1015D000134E16F8116004F8016B4E1C31B2561E02
:1015E000B2B2002AEEDC17E011E014F8017B3E02F3
:1015F0000B4F27F8116014F8016B37F811703E4358
:10160000074F27F811604E1C31B2561EB2B2002AA5
:10161000EBDC01E0022000BF00E00120F0BD000093
:101620004001002030B503460020102916DB8D183C
:10163000422D13DCA1F110040DE0094D35F81450D2
:101640002D1203F8015B064D15F8145003F8015BE9
:10165000641C551EAAB2002AEFDC00E0012030BD58
:10166000DC00002008B54AF6BB20174908804CF67C
:10167000DD4048804EF6FF60888041F22210C8802D
:1016800043F24430088145F26650488155200F49A5
:1016900008700F20487000208870C8704FF44070A8
:1016A000FEF766FEA820FFF759FA00204FF4165304
:1016B000012211460090FFF7FDFCFFF76DFA01E0F3
:1016C000FFF768FDFCE70000DC000020D0020020EE
:1016D000014621B1012904D0072906D103E00020E9
:1016E00005E0022003E0062001E0042000BF00BF67
:1016F0007047000010B502480068804710BD000028
:101700004400002010B502480068804710BD00006A
:101710003C00002010B502480068804710BD000062
:10172000400000203EB5044601210846FEF73CFE7D
:101730004FF08040FEF7BAFF019441F26700ADF828
:1017400000000020ADF80800ADF8020069464FF037
:101750008040FFF78FF801218807FEF79BFF3EBD11
:1017600008B51C208DF8000000208DF80100022033
:101770008DF8020001208DF803006846FEF7BCFDDD
:1017800008BD000010B586B0044601210846FEF7EA
:10179000FBFD01214804FEF707FE01214020FEF772
:1017A000F3FD4FF48070049001208DF814000320A5
:1017B0008DF8150000208DF8160001208DF8170017
:1017C00004A91D48FEF723FD00224FF480711A483A
:1017D000FEF788FD072202211848FEF760FD072268
:1017E00003211648FEF75BFD0C20049002208DF8C3
:1017F00014008DF8150000208DF8160001208DF8DA
:10180000170004A90D48FEF702FD00940020ADF872
:101810000400ADF80600ADF80800ADF80C000C208F
:10182000ADF80A0069460648FFF7FEF801210448B2
:10183000FFF79FF806B010BD0018024000000240FC
:101840000044004070B502460C46FF25FF2309E026
:1018500012F8010B80EA03010648405C80EA0503A8
:101860000548455C201EA4F10106B4B2F0D143EA5C
:10187000052070BDD01C0008D01D000870B50546BD
:101880000C46012D0BD1012240F225511148FFF7E2
:10189000A6F8002229021048FEF724FD0AE00022E3
:1018A00040F225510B48FFF79AF8012211020A482D
:1018B000FEF718FD012C06D1012240F226610548F1
:1018C000FFF78DF805E0002240F226610148FFF79E
:1018D00086F870BD004400400018024010B5012198
:1018E0008807FEF7D4FE002201218807FEF7B7FF24
:1018F00000214FF08040FEF7BBFF00214FF08040F9
:10190000FEF7C8FE10BD10B501218807FEF7BFFE27
:10191000012211469007FEF7A2FF00214FF0804000
:10192000FEF7A6FF01218807FEF7B4FE10BD0000F8
:1019300001460020054A127832B1054A12780A7031
:101940000022024B1A70012070470000DA000020CC
:10195000D9000020002002490870012070470000D3
:10196000DA00002001460120024A1070024801708E
:1019700001207047DA000020D900002010B504468D
:101980000248FFF7CFF82070012010BD004400404E
:101990002DE9F04105460C4616461F462046FFF746
:1019A000F1FEFFF7ABF80120BDE8F08110B5044669
:1019B00021460248FFF7BBF8012010BD004400405B
:1019C00010B504462046FFF7ADFEFFF7C9FE012023
:1019D00010BD000038B500242148007800B904E0AB
:1019E000EC2220A128A0FFF7A8F86846FFF7C6FF61
:1019F0002C48007830B101280AD0022819D00328D9
:101A00002BD102E0FFF77FFF27E0FFF77CFF24E008
:101A10000020254908809DF800200888411C224BA1
:101A2000198022490A5402201E490870FFF76BFFF3
:101A300013E01D480088FF2809DC9DF800201A49A2
:101A40000888411C184B198018490A5402E00320E9
:101A500014490870FFF757FF00BF00BF204638BD8C
:101A6000180000202E2E5C467265654D6F6462750D
:101A7000735C6D6F646275735C7274755C6D6272B9
:101A800074752E630000000065536E6453746174B6
:101A900065203D3D2053544154455F54585F4944AF
:101AA0004C450000190000202200002018030020EF
:101AB00010B500241648007820B1022807D003286A
:101AC0000BD109E00020FFF74DFF044618E001208C
:101AD000FFF748FF044613E012E00D48007838B1E4
:101AE0000B480078022803D009480078032800D169
:101AF00005E04FF4B07207A10F48FFF71EF800BFD2
:101B000000BFFFF7EBFE012001490870204610BD21
:101B1000190000202E2E5C467265654D6F6462755B
:101B2000735C6D6F646275735C7274755C6D627208
:101B300074752E6300000000D01E000810B500244C
:101B40001B480078012800D105E040F2271219A1B6
:101B500021A0FEF7F2FF2748007810B1012824D118
:101B600004E000210120FFF789FE1EE022480088E2
:101B700078B1224909680878FFF718FF1F48006804
:101B8000401C1E4908601C480088401E1A490880F5
:101B90000AE00320FFF7E6FE044600210120FFF7DC
:101BA0006DFE00201349087000BF00BF204610BD25
:101BB000190000202E2E5C467265654D6F646275BB
:101BC000735C6D6F646275735C7274755C6D627268
:101BD00074752E630000000065526376537461745F
:101BE00065203D3D2053544154455F52585F494460
:101BF0004C45000018000020200000201C000020A0
:101C0000F0B503460C461546E208A4EBC20087B2C5
:101C10000120A840401E86B2995C501C185C41EA25
:101C2000002139413140C8B2F0BD00002DE9FF5F0D
:101C300005460E469046DDF80CB0B8F1080F00DC02
:101C400004E0362213A11EA0FEF777FFF408A6EBEE
:101C5000C4001FFA80FA0BFA0AF01FFA80FB012079
:101C600000FA08F0401E1FFA80F9A6EBC40009FA3A
:101C700000F01FFA80F92F5D601C285C47EA0027FE
:101C800027EA090040EA0B072F553912601C295436
:101C9000BDE8FF9F2E2E5C467265654D6F646275D0
:101CA000735C6D6F646275735C66756E6374696F87
:101CB0006E735C6D627574696C732E630000000056
:101CC00075634E42697473203C3D2038000000006B
:101CD00000C1814001C0804101C0804100C18140FC
:101CE00001C0804100C1814000C1814001C08041EC
:101CF00001C0804100C1814000C1814001C08041DC
:101D000000C1814001C0804101C0804100C18140CB
:101D100001C0804100C1814000C1814001C08041BB
:101D200000C1814001C0804101C0804100C18140AB
:101D300000C1814001C0804101C0804100C181409B
:101D400001C0804100C1814000C1814001C080418B
:101D500001C0804100C1814000C1814001C080417B
:101D600000C1814001C0804101C0804100C181406B
:101D700000C1814001C0804101C0804100C181405B
:101D800001C0804100C1814000C1814001C080414B
:101D900000C1814001C0804101C0804100C181403B
:101DA00001C0804100C1814000C1814001C080412B
:101DB00001C0804100C1814000C1814001C080411B
:101DC00000C1814001C0804101C0804100C181400B
:101DD00000C0C101C30302C2C60607C705C5C404CB
:101DE000CC0C0DCD0FCFCE0E0ACACB0BC90908C83B
:101DF000D81819D91BDBDA1A1EDEDF1FDD1D1CDC2B
:101E000014D4D515D71716D6D21213D311D1D0109A
:101E1000F03031F133F3F23236F6F737F53534F48A
:101E20003CFCFD3DFF3F3EFEFA3A3BFB39F9F838FA
:101E300028E8E929EB2B2AEAEE2E2FEF2DEDEC2CEA
:101E4000E42425E527E7E62622E2E323E12120E05A
:101E5000A06061A163A3A26266A6A767A56564A44A
:101E60006CACAD6DAF6F6EAEAA6A6BAB69A9A868BA
:101E700078B8B979BB7B7ABABE7E7FBF7DBDBC7CAA
:101E8000B47475B577B7B67672B2B373B17170B01A
:101E9000509091519353529296565797559594540A
:101EA0009C5C5D9D5F9F9E5E5A9A9B5B995958987A
:101EB000884849894B8B8A4A4E8E8F4F8D4D4C8C6A
:101EC00044848545874746868242438341818040DA
:101ED0002820655263765374617465203D3D20531C
:101EE000544154455F52585F494E49542029207C43
:101EF0007C202820655263765374617465203D3DD3
:101F00002053544154455F52585F52435620292074
:101F10007C7C202820655263765374617465203D73
:101F20003D2053544154455F52585F4552524F52E1
:101F300020290000541F000800000020DC000000E1
:101F40003C0B000830200008DC0000203C070000AB
:101F50004C0B000800000000000000000102030418
:101F60000102030406070809000000000000000049
:101F7000000000000000000000000200000000005F
:101F80000000000000000000000000000000000051
:101F90000000000000000000000000000000000041
:101FA0000000000011000000E90E0008040000001D
:101FB0008F0D0008030000000B0D0008100000004A
:101FC00049100008060000007D0F000817000000FF
:101FD000130E000801000000C10B000805000000FE
:101FE000110F00080F000000BB0F000802000000E6
:101FF000670C000800000000000000000000000066
:1020000000000000000000000000000000000000D0
:1020100000000000000000000000000000000000C0
:1020200000000000000000000000000000000000B0
:040000050800018965
:00000001FF
